{
  "contractName": "MonsterCollection",
  "abi": [
    {
      "inputs": [],
      "stateMutability": "nonpayable",
      "type": "constructor"
    },
    {
      "anonymous": false,
      "inputs": [
        {
          "indexed": true,
          "internalType": "address",
          "name": "owner",
          "type": "address"
        },
        {
          "indexed": true,
          "internalType": "address",
          "name": "approved",
          "type": "address"
        },
        {
          "indexed": true,
          "internalType": "uint256",
          "name": "tokenId",
          "type": "uint256"
        }
      ],
      "name": "Approval",
      "type": "event"
    },
    {
      "anonymous": false,
      "inputs": [
        {
          "indexed": true,
          "internalType": "address",
          "name": "owner",
          "type": "address"
        },
        {
          "indexed": true,
          "internalType": "address",
          "name": "operator",
          "type": "address"
        },
        {
          "indexed": false,
          "internalType": "bool",
          "name": "approved",
          "type": "bool"
        }
      ],
      "name": "ApprovalForAll",
      "type": "event"
    },
    {
      "anonymous": false,
      "inputs": [
        {
          "indexed": false,
          "internalType": "uint256",
          "name": "value",
          "type": "uint256"
        }
      ],
      "name": "Encounter",
      "type": "event"
    },
    {
      "anonymous": false,
      "inputs": [
        {
          "indexed": true,
          "internalType": "address",
          "name": "previousOwner",
          "type": "address"
        },
        {
          "indexed": true,
          "internalType": "address",
          "name": "newOwner",
          "type": "address"
        }
      ],
      "name": "OwnershipTransferred",
      "type": "event"
    },
    {
      "anonymous": false,
      "inputs": [
        {
          "indexed": false,
          "internalType": "uint256",
          "name": "id1",
          "type": "uint256"
        },
        {
          "indexed": false,
          "internalType": "uint256",
          "name": "id2",
          "type": "uint256"
        }
      ],
      "name": "PropostaScambio",
      "type": "event"
    },
    {
      "anonymous": false,
      "inputs": [
        {
          "indexed": false,
          "internalType": "uint256",
          "name": "id1",
          "type": "uint256"
        },
        {
          "indexed": false,
          "internalType": "uint256",
          "name": "id2",
          "type": "uint256"
        }
      ],
      "name": "ScambioAccettato",
      "type": "event"
    },
    {
      "anonymous": false,
      "inputs": [
        {
          "indexed": true,
          "internalType": "address",
          "name": "from",
          "type": "address"
        },
        {
          "indexed": true,
          "internalType": "address",
          "name": "to",
          "type": "address"
        },
        {
          "indexed": true,
          "internalType": "uint256",
          "name": "tokenId",
          "type": "uint256"
        }
      ],
      "name": "Transfer",
      "type": "event"
    },
    {
      "inputs": [
        {
          "internalType": "address",
          "name": "to",
          "type": "address"
        },
        {
          "internalType": "uint256",
          "name": "tokenId",
          "type": "uint256"
        }
      ],
      "name": "approve",
      "outputs": [],
      "stateMutability": "nonpayable",
      "type": "function"
    },
    {
      "inputs": [
        {
          "internalType": "address",
          "name": "owner",
          "type": "address"
        }
      ],
      "name": "balanceOf",
      "outputs": [
        {
          "internalType": "uint256",
          "name": "",
          "type": "uint256"
        }
      ],
      "stateMutability": "view",
      "type": "function",
      "constant": true
    },
    {
      "inputs": [
        {
          "internalType": "uint256",
          "name": "tokenId",
          "type": "uint256"
        }
      ],
      "name": "getApproved",
      "outputs": [
        {
          "internalType": "address",
          "name": "",
          "type": "address"
        }
      ],
      "stateMutability": "view",
      "type": "function",
      "constant": true
    },
    {
      "inputs": [
        {
          "internalType": "address",
          "name": "owner",
          "type": "address"
        },
        {
          "internalType": "address",
          "name": "operator",
          "type": "address"
        }
      ],
      "name": "isApprovedForAll",
      "outputs": [
        {
          "internalType": "bool",
          "name": "",
          "type": "bool"
        }
      ],
      "stateMutability": "view",
      "type": "function",
      "constant": true
    },
    {
      "inputs": [],
      "name": "name",
      "outputs": [
        {
          "internalType": "string",
          "name": "",
          "type": "string"
        }
      ],
      "stateMutability": "view",
      "type": "function",
      "constant": true
    },
    {
      "inputs": [],
      "name": "owner",
      "outputs": [
        {
          "internalType": "address",
          "name": "",
          "type": "address"
        }
      ],
      "stateMutability": "view",
      "type": "function",
      "constant": true
    },
    {
      "inputs": [
        {
          "internalType": "uint256",
          "name": "tokenId",
          "type": "uint256"
        }
      ],
      "name": "ownerOf",
      "outputs": [
        {
          "internalType": "address",
          "name": "",
          "type": "address"
        }
      ],
      "stateMutability": "view",
      "type": "function",
      "constant": true
    },
    {
      "inputs": [],
      "name": "renounceOwnership",
      "outputs": [],
      "stateMutability": "nonpayable",
      "type": "function"
    },
    {
      "inputs": [
        {
          "internalType": "address",
          "name": "from",
          "type": "address"
        },
        {
          "internalType": "address",
          "name": "to",
          "type": "address"
        },
        {
          "internalType": "uint256",
          "name": "tokenId",
          "type": "uint256"
        }
      ],
      "name": "safeTransferFrom",
      "outputs": [],
      "stateMutability": "nonpayable",
      "type": "function"
    },
    {
      "inputs": [
        {
          "internalType": "address",
          "name": "from",
          "type": "address"
        },
        {
          "internalType": "address",
          "name": "to",
          "type": "address"
        },
        {
          "internalType": "uint256",
          "name": "tokenId",
          "type": "uint256"
        },
        {
          "internalType": "bytes",
          "name": "data",
          "type": "bytes"
        }
      ],
      "name": "safeTransferFrom",
      "outputs": [],
      "stateMutability": "nonpayable",
      "type": "function"
    },
    {
      "inputs": [
        {
          "internalType": "address",
          "name": "operator",
          "type": "address"
        },
        {
          "internalType": "bool",
          "name": "approved",
          "type": "bool"
        }
      ],
      "name": "setApprovalForAll",
      "outputs": [],
      "stateMutability": "nonpayable",
      "type": "function"
    },
    {
      "inputs": [
        {
          "internalType": "bytes4",
          "name": "interfaceId",
          "type": "bytes4"
        }
      ],
      "name": "supportsInterface",
      "outputs": [
        {
          "internalType": "bool",
          "name": "",
          "type": "bool"
        }
      ],
      "stateMutability": "view",
      "type": "function",
      "constant": true
    },
    {
      "inputs": [],
      "name": "symbol",
      "outputs": [
        {
          "internalType": "string",
          "name": "",
          "type": "string"
        }
      ],
      "stateMutability": "view",
      "type": "function",
      "constant": true
    },
    {
      "inputs": [
        {
          "internalType": "uint256",
          "name": "index",
          "type": "uint256"
        }
      ],
      "name": "tokenByIndex",
      "outputs": [
        {
          "internalType": "uint256",
          "name": "",
          "type": "uint256"
        }
      ],
      "stateMutability": "view",
      "type": "function",
      "constant": true
    },
    {
      "inputs": [
        {
          "internalType": "address",
          "name": "owner",
          "type": "address"
        },
        {
          "internalType": "uint256",
          "name": "index",
          "type": "uint256"
        }
      ],
      "name": "tokenOfOwnerByIndex",
      "outputs": [
        {
          "internalType": "uint256",
          "name": "",
          "type": "uint256"
        }
      ],
      "stateMutability": "view",
      "type": "function",
      "constant": true
    },
    {
      "inputs": [
        {
          "internalType": "uint256",
          "name": "tokenId",
          "type": "uint256"
        }
      ],
      "name": "tokenURI",
      "outputs": [
        {
          "internalType": "string",
          "name": "",
          "type": "string"
        }
      ],
      "stateMutability": "view",
      "type": "function",
      "constant": true
    },
    {
      "inputs": [],
      "name": "totalSupply",
      "outputs": [
        {
          "internalType": "uint256",
          "name": "",
          "type": "uint256"
        }
      ],
      "stateMutability": "view",
      "type": "function",
      "constant": true
    },
    {
      "inputs": [
        {
          "internalType": "address",
          "name": "from",
          "type": "address"
        },
        {
          "internalType": "address",
          "name": "to",
          "type": "address"
        },
        {
          "internalType": "uint256",
          "name": "tokenId",
          "type": "uint256"
        }
      ],
      "name": "transferFrom",
      "outputs": [],
      "stateMutability": "nonpayable",
      "type": "function"
    },
    {
      "inputs": [
        {
          "internalType": "address",
          "name": "newOwner",
          "type": "address"
        }
      ],
      "name": "transferOwnership",
      "outputs": [],
      "stateMutability": "nonpayable",
      "type": "function"
    },
    {
      "inputs": [],
      "name": "getTrades",
      "outputs": [
        {
          "components": [
            {
              "internalType": "uint256",
              "name": "monsterProposed",
              "type": "uint256"
            },
            {
              "internalType": "uint256",
              "name": "monsterRequired",
              "type": "uint256"
            }
          ],
          "internalType": "struct MonsterCollection.Trade[]",
          "name": "",
          "type": "tuple[]"
        }
      ],
      "stateMutability": "view",
      "type": "function",
      "constant": true
    },
    {
      "inputs": [
        {
          "internalType": "uint256",
          "name": "monsterProposed",
          "type": "uint256"
        },
        {
          "internalType": "uint256",
          "name": "monsterRequired",
          "type": "uint256"
        }
      ],
      "name": "proposeTrade",
      "outputs": [],
      "stateMutability": "nonpayable",
      "type": "function"
    },
    {
      "inputs": [
        {
          "internalType": "uint256",
          "name": "monsterProposed",
          "type": "uint256"
        },
        {
          "internalType": "uint256",
          "name": "monsterRequired",
          "type": "uint256"
        }
      ],
      "name": "acceptTrade",
      "outputs": [],
      "stateMutability": "nonpayable",
      "type": "function"
    },
    {
      "inputs": [
        {
          "components": [
            {
              "internalType": "string",
              "name": "name",
              "type": "string"
            },
            {
              "internalType": "string",
              "name": "image",
              "type": "string"
            }
          ],
          "internalType": "struct MonsterCollection.Monster",
          "name": "monster",
          "type": "tuple"
        }
      ],
      "name": "mintNFTs",
      "outputs": [],
      "stateMutability": "nonpayable",
      "type": "function"
    },
    {
      "inputs": [],
      "name": "EncounterMonster",
      "outputs": [
        {
          "internalType": "uint256",
          "name": "",
          "type": "uint256"
        }
      ],
      "stateMutability": "nonpayable",
      "type": "function"
    },
    {
      "inputs": [
        {
          "internalType": "uint256",
          "name": "idToken",
          "type": "uint256"
        }
      ],
      "name": "ObtainMonster",
      "outputs": [],
      "stateMutability": "nonpayable",
      "type": "function"
    },
    {
      "inputs": [],
      "name": "freeMonsters",
      "outputs": [
        {
          "internalType": "uint256[]",
          "name": "",
          "type": "uint256[]"
        }
      ],
      "stateMutability": "view",
      "type": "function",
      "constant": true
    },
    {
      "inputs": [],
      "name": "NumberOfFreeMonsters",
      "outputs": [
        {
          "internalType": "uint256",
          "name": "",
          "type": "uint256"
        }
      ],
      "stateMutability": "view",
      "type": "function",
      "constant": true
    },
    {
      "inputs": [],
      "name": "GetMyTokens",
      "outputs": [
        {
          "internalType": "uint256[]",
          "name": "",
          "type": "uint256[]"
        }
      ],
      "stateMutability": "view",
      "type": "function",
      "constant": true
    },
    {
      "inputs": [
        {
          "internalType": "uint256",
          "name": "idToken",
          "type": "uint256"
        }
      ],
      "name": "getMonsterByToken",
      "outputs": [
        {
          "components": [
            {
              "internalType": "string",
              "name": "name",
              "type": "string"
            },
            {
              "internalType": "string",
              "name": "image",
              "type": "string"
            }
          ],
          "internalType": "struct MonsterCollection.Monster",
          "name": "",
          "type": "tuple"
        }
      ],
      "stateMutability": "view",
      "type": "function",
      "constant": true
    },
    {
      "inputs": [
        {
          "internalType": "address",
          "name": "_owner",
          "type": "address"
        }
      ],
      "name": "tokensOfOwner",
      "outputs": [
        {
          "internalType": "uint256[]",
          "name": "",
          "type": "uint256[]"
        }
      ],
      "stateMutability": "view",
      "type": "function",
      "constant": true
    }
  ],
  "bytecode": "0x60806040523480156200001157600080fd5b506040518060400160405280600681526020017f4c47534e465400000000000000000000000000000000000000000000000000008152506040518060400160405280600381526020017f4c4753000000000000000000000000000000000000000000000000000000000081525081600090816200008f919062000200565b5060016200009e828262000200565b505050620000cd620000be620000d3640100000000026401000000009004565b640100000000620000d7810204565b620002d3565b3390565b600a8054600160a060020a03838116600160a060020a0319831681179093556040519116919082907f8be0079c531659141344cd1fd0a4f28419497f9722a3daafe3b4186f6b6457e090600090a35050565b7f4e487b7100000000000000000000000000000000000000000000000000000000600052604160045260246000fd5b6002810460018216806200016d57607f821691505b602082108103620001a7577f4e487b7100000000000000000000000000000000000000000000000000000000600052602260045260246000fd5b50919050565b601f821115620001fb576000818152602081206020601f86010481016020861015620001d65750805b6020601f860104820191505b81811015620001f757828155600101620001e2565b5050505b505050565b815167ffffffffffffffff8111156200021d576200021d62000129565b62000235816200022e845462000158565b84620001ad565b602080601f831160018114620002715760008415620002545750858301515b60028086026008870290910a6000190419821617865550620001f7565b600085815260208120601f198616915b82811015620002a25788860151825594840194600190910190840162000281565b5085821015620002c357878501516008601f88160260020a60001904191681555b5050505050600202600101905550565b61285f80620002e36000396000f3fe608060405234801561001057600080fd5b50600436106101f7576000357c010000000000000000000000000000000000000000000000000000000090048063715018a611610121578063afd6e11f116100bf578063e2cf27e71161008e578063e2cf27e7146103f0578063e43372e914610403578063e985e9c514610418578063f2fde38b1461045457600080fd5b8063afd6e11f146103a4578063b88d4fde146103b7578063c87b56dd146103ca578063cbeb9b9b146103dd57600080fd5b80638da5cb5b116100fb5780638da5cb5b1461037057806395d89b4114610381578063a22cb46514610389578063a67797e11461039c57600080fd5b8063715018a61461034d5780638462151c14610355578063869cc5d11461036857600080fd5b80632f745c591161019957806342842e0e1161016857806342842e0e146103015780634f6ccce7146103145780636352211e1461032757806370a082311461033a57600080fd5b80632f745c59146102be5780633bf5426f146102d15780633c4b0141146102e65780633f0eb21a146102f957600080fd5b8063095ea7b3116101d5578063095ea7b31461026457806318160ddd1461027957806323b872dd1461028b5780632ee1fa661461029e57600080fd5b806301ffc9a7146101fc57806306fdde0314610224578063081812fc14610239575b600080fd5b61020f61020a366004611fc4565b610467565b60405190151581526020015b60405180910390f35b61022c6104ab565b60405161021b9190612031565b61024c610247366004612044565b61053d565b604051600160a060020a03909116815260200161021b565b610277610272366004612074565b610564565b005b6008545b60405190815260200161021b565b61027761029936600461209e565b6106a0565b6102b16102ac366004612044565b6106d4565b60405161021b91906120da565b61027d6102cc366004612074565b610833565b6102d96108de565b60405161021b919061211c565b6102776102f4366004612160565b6108ee565b61027d610ae3565b61027761030f36600461209e565b610bb3565b61027d610322366004612044565b610bce565b61024c610335366004612044565b610c75565b61027d610348366004612182565b610cdd565b610277610d7a565b6102d9610363366004612182565b610d8e565b61027d610e30565b600a54600160a060020a031661024c565b61022c610e3b565b61027761039736600461219d565b610e4a565b6102d9610e59565b6102776103b2366004612044565b610e64565b6102776103c5366004612268565b610f2a565b61022c6103d8366004612044565b610f65565b6102776103eb366004612160565b610fd9565b6102776103fe366004612304565b61110f565b61040b61115e565b60405161021b91906123ab565b61020f6104263660046123fa565b600160a060020a03918216600090815260056020908152604080832093909416825291909152205460ff1690565b610277610462366004612182565b6111d1565b6000600160e060020a031982167f780e9d630000000000000000000000000000000000000000000000000000000014806104a557506104a582611261565b92915050565b6060600080546104ba9061242d565b80601f01602080910402602001604051908101604052809291908181526020018280546104e69061242d565b80156105335780601f1061050857610100808354040283529160200191610533565b820191906000526020600020905b81548152906001019060200180831161051657829003601f168201915b5050505050905090565b6000610548826112fc565b50600090815260046020526040902054600160a060020a031690565b600061056f82610c75565b905080600160a060020a031683600160a060020a0316036106005760405160e560020a62461bcd02815260206004820152602160248201527f4552433732313a20617070726f76616c20746f2063757272656e74206f776e6560448201527f720000000000000000000000000000000000000000000000000000000000000060648201526084015b60405180910390fd5b33600160a060020a038216148061061c575061061c8133610426565b6106915760405160e560020a62461bcd02815260206004820152603d60248201527f4552433732313a20617070726f76652063616c6c6572206973206e6f7420746f60448201527f6b656e206f776e6572206f7220617070726f76656420666f7220616c6c00000060648201526084016105f7565b61069b8383611363565b505050565b6106aa33826113de565b6106c95760405160e560020a62461bcd0281526004016105f79061246a565b61069b83838361145d565b60408051808201909152606080825260208201526106f1826112fc565b6000828152600c60205260409081902081518083019092528054829082906107189061242d565b80601f01602080910402602001604051908101604052809291908181526020018280546107449061242d565b80156107915780601f1061076657610100808354040283529160200191610791565b820191906000526020600020905b81548152906001019060200180831161077457829003601f168201915b505050505081526020016001820180546107aa9061242d565b80601f01602080910402602001604051908101604052809291908181526020018280546107d69061242d565b80156108235780601f106107f857610100808354040283529160200191610823565b820191906000526020600020905b81548152906001019060200180831161080657829003601f168201915b5050505050815250509050919050565b600061083e83610cdd565b82106108b55760405160e560020a62461bcd02815260206004820152602b60248201527f455243373231456e756d657261626c653a206f776e657220696e646578206f7560448201527f74206f6620626f756e647300000000000000000000000000000000000000000060648201526084016105f7565b50600160a060020a03919091166000908152600660209081526040808320938352929052205490565b60606108e930610d8e565b905090565b6108f7826112fc565b3361090182610c75565b600160a060020a03161461092a5760405160e560020a62461bcd0281526004016105f7906124c7565b6000828152600e6020908152604080832084845290915290205460ff16151560011461099b5760405160e560020a62461bcd02815260206004820152601460248201527f7363616d62696f206e6f6e2070726f706f73746f00000000000000000000000060448201526064016105f7565b60006109a683610c75565b6000848152600e602090815260408083208684528252808320805460ff19169055805191820190529081529091506109e3908290339086906115fd565b6109fe338284604051806020016040528060008152506115fd565b600f5460005b81811015610aa35784600f8281548110610a2057610a20612524565b906000526020600020906002020160000154148015610a62575083600f8281548110610a4e57610a4e612524565b906000526020600020906002020160010154145b15610a9157600f8181548110610a7a57610a7a612524565b600091825260208220600290910201818155600101555b80610a9b81612556565b915050610a04565b5060408051858152602081018590527f4a62a7193b591a631510ae19617fbcc9d377efe3701a1638e6fd723cf327ba95910160405180910390a150505050565b600080610aee610e30565b11610b3e5760405160e560020a62461bcd02815260206004820152601960248201527f4e657373756e206d6f7374726f20646973706f6e6962696c650000000000000060448201526064016105f7565b6000610b5630610b4c610e30565b6102cc904361256f565b6000818152600d60209081526040808320338452825291829020805460ff1916600117905590518281529192507f42fd243cfe85e11b1e67eafc7dd816c8e455f6f8926eec350e69c4996440ec32910160405180910390a1919050565b61069b83838360405180602001604052806000815250610f2a565b6000610bd960085490565b8210610c505760405160e560020a62461bcd02815260206004820152602c60248201527f455243373231456e756d657261626c653a20676c6f62616c20696e646578206f60448201527f7574206f6620626f756e6473000000000000000000000000000000000000000060648201526084016105f7565b60088281548110610c6357610c63612524565b90600052602060002001549050919050565b600081815260026020526040812054600160a060020a0316806104a55760405160e560020a62461bcd02815260206004820152601860248201527f4552433732313a20696e76616c696420746f6b656e204944000000000000000060448201526064016105f7565b6000600160a060020a038216610d5e5760405160e560020a62461bcd02815260206004820152602960248201527f4552433732313a2061646472657373207a65726f206973206e6f74206120766160448201527f6c6964206f776e6572000000000000000000000000000000000000000000000060648201526084016105f7565b50600160a060020a031660009081526003602052604090205490565b610d82611633565b610d8c6000611690565b565b60606000610d9b83610cdd565b905060008167ffffffffffffffff811115610db857610db86121d9565b604051908082528060200260200182016040528015610de1578160200160208202803683370190505b50905060005b82811015610e2857610df98582610833565b828281518110610e0b57610e0b612524565b602090810291909101015280610e2081612556565b915050610de7565b509392505050565b60006108e930610cdd565b6060600180546104ba9061242d565b610e553383836116ef565b5050565b60606108e933610d8e565b610e6d816112fc565b6000818152600d6020908152604080832033845290915290205460ff16610ed95760405160e560020a62461bcd02815260206004820152601c60248201527f6e6f6e2068616920696e636f6e747261746f20696c206d6f7374726f0000000060448201526064016105f7565b30610ee382610c75565b600160a060020a031614610f0c5760405160e560020a62461bcd0281526004016105f7906124c7565b610f27303383604051806020016040528060008152506115fd565b50565b610f3433836113de565b610f535760405160e560020a62461bcd0281526004016105f79061246a565b610f5f848484846115fd565b50505050565b6060610f70826112fc565b6000610f8760408051602081019091526000815290565b90506000815111610fa75760405180602001604052806000815250610fd2565b80610fb1846117c0565b604051602001610fc2929190612594565b6040516020818303038152906040525b9392505050565b610fe2816112fc565b33610fec83610c75565b600160a060020a0316146110155760405160e560020a62461bcd0281526004016105f7906124c7565b6000828152600e6020908152604080832084845290915281205460ff16151590036110d2576000828152600e6020908152604080832084845282528083208054600160ff1990911681179091558151808301909252858252918101848152600f80549384018155909352517f8d1108e10bcb7c27dddfc02ed9d693a074039d026cf4ea4240b40f7d581ac80260029092029182015590517f8d1108e10bcb7c27dddfc02ed9d693a074039d026cf4ea4240b40f7d581ac803909101555b60408051838152602081018390527f29263fa0e24b1f6da7cebd230ddf0b35e193978bacd7a2e83902059b41ea0551910160405180910390a15050565b611117611633565b6000611121611860565b6000818152600c602052604090208351919250839181906111429082612611565b50602082015160018201906111579082612611565b5050505050565b6060600f805480602002602001604051908101604052809291908181526020016000905b828210156111c857838290600052602060002090600202016040518060400160405290816000820154815260200160018201548152505081526020019060010190611182565b50505050905090565b6111d9611633565b600160a060020a0381166112585760405160e560020a62461bcd02815260206004820152602660248201527f4f776e61626c653a206e6577206f776e657220697320746865207a65726f206160448201527f646472657373000000000000000000000000000000000000000000000000000060648201526084016105f7565b610f2781611690565b6000600160e060020a031982167f80ac58cd0000000000000000000000000000000000000000000000000000000014806112c45750600160e060020a031982167f5b5e139f00000000000000000000000000000000000000000000000000000000145b806104a557507f01ffc9a700000000000000000000000000000000000000000000000000000000600160e060020a03198316146104a5565b600081815260026020526040902054600160a060020a0316610f275760405160e560020a62461bcd02815260206004820152601860248201527f4552433732313a20696e76616c696420746f6b656e204944000000000000000060448201526064016105f7565b6000818152600460205260409020805473ffffffffffffffffffffffffffffffffffffffff1916600160a060020a03841690811790915581906113a582610c75565b600160a060020a03167f8c5be1e5ebec7d5bd14f71427d1e84f3dd0314c0f7b2291e5b200ac8c7c3b92560405160405180910390a45050565b6000806113ea83610c75565b905080600160a060020a031684600160a060020a031614806114315750600160a060020a0380821660009081526005602090815260408083209388168352929052205460ff165b80611455575083600160a060020a031661144a8461053d565b600160a060020a0316145b949350505050565b82600160a060020a031661147082610c75565b600160a060020a0316146114995760405160e560020a62461bcd0281526004016105f7906126d7565b600160a060020a0382166115175760405160e560020a62461bcd028152602060048201526024808201527f4552433732313a207472616e7366657220746f20746865207a65726f2061646460448201527f726573730000000000000000000000000000000000000000000000000000000060648201526084016105f7565b611524838383600161188b565b82600160a060020a031661153782610c75565b600160a060020a0316146115605760405160e560020a62461bcd0281526004016105f7906126d7565b6000818152600460209081526040808320805473ffffffffffffffffffffffffffffffffffffffff19908116909155600160a060020a0387811680865260038552838620805460001901905590871680865283862080546001019055868652600290945282852080549092168417909155905184937fddf252ad1be2c89b69c2b068fc378daa952ba7f163c4a11628f55a4df523b3ef91a4505050565b61160884848461145d565b611614848484846119cf565b610f5f5760405160e560020a62461bcd0281526004016105f790612734565b600a54600160a060020a03163314610d8c5760405160e560020a62461bcd02815260206004820181905260248201527f4f776e61626c653a2063616c6c6572206973206e6f7420746865206f776e657260448201526064016105f7565b600a8054600160a060020a0383811673ffffffffffffffffffffffffffffffffffffffff19831681179093556040519116919082907f8be0079c531659141344cd1fd0a4f28419497f9722a3daafe3b4186f6b6457e090600090a35050565b81600160a060020a031683600160a060020a0316036117535760405160e560020a62461bcd02815260206004820152601960248201527f4552433732313a20617070726f766520746f2063616c6c65720000000000000060448201526064016105f7565b600160a060020a03838116600081815260056020908152604080832094871680845294825291829020805460ff191686151590811790915591519182527f17307eab39ab6107e8899845ad3d59bd9653f200f220920489ca2b5937696c31910160405180910390a3505050565b606060006117cd83611b05565b600101905060008167ffffffffffffffff8111156117ed576117ed6121d9565b6040519080825280601f01601f191660200182016040528015611817576020820181803683370190505b5090508181016020015b600019017f3031323334353637383961626364656600000000000000000000000000000000600a86061a8153600a850494508461182157509392505050565b60008061186c600b5490565b90506118783082611be7565b611886600b80546001019055565b919050565b61189784848484611d96565b60018111156119115760405160e560020a62461bcd02815260206004820152603560248201527f455243373231456e756d657261626c653a20636f6e736563757469766520747260448201527f616e7366657273206e6f7420737570706f72746564000000000000000000000060648201526084016105f7565b81600160a060020a03851661196d5761196881600880546000838152600960205260408120829055600182018355919091527ff3f7a9fe364faab93b216da50a3214154f22a0a2b415b23a84c8169e8b636ee30155565b611990565b83600160a060020a031685600160a060020a031614611990576119908582611e1e565b600160a060020a0384166119ac576119a781611ebb565b611157565b84600160a060020a031684600160a060020a031614611157576111578482611f6a565b6000600160a060020a0384163b15611afa576040517f150b7a02000000000000000000000000000000000000000000000000000000008152600160a060020a0385169063150b7a0290611a2c903390899088908890600401612791565b6020604051808303816000875af1925050508015611a67575060408051601f3d908101601f19168201909252611a64918101906127cd565b60015b611ac7573d808015611a95576040519150601f19603f3d011682016040523d82523d6000602084013e611a9a565b606091505b508051600003611abf5760405160e560020a62461bcd0281526004016105f790612734565b805181602001fd5b600160e060020a0319167f150b7a0200000000000000000000000000000000000000000000000000000000149050611455565b506001949350505050565b6000807a184f03e93ff9f4daa797ed6e38ed64bf6a1f0100000000000000008310611b4e577a184f03e93ff9f4daa797ed6e38ed64bf6a1f010000000000000000830492506040015b6d04ee2d6d415b85acef81000000008310611b7a576d04ee2d6d415b85acef8100000000830492506020015b662386f26fc100008310611b9857662386f26fc10000830492506010015b6305f5e1008310611bb0576305f5e100830492506008015b6127108310611bc457612710830492506004015b60648310611bd6576064830492506002015b600a83106104a55760010192915050565b600160a060020a038216611c405760405160e560020a62461bcd02815260206004820181905260248201527f4552433732313a206d696e7420746f20746865207a65726f206164647265737360448201526064016105f7565b600081815260026020526040902054600160a060020a031615611ca85760405160e560020a62461bcd02815260206004820152601c60248201527f4552433732313a20746f6b656e20616c7265616479206d696e7465640000000060448201526064016105f7565b611cb660008383600161188b565b600081815260026020526040902054600160a060020a031615611d1e5760405160e560020a62461bcd02815260206004820152601c60248201527f4552433732313a20746f6b656e20616c7265616479206d696e7465640000000060448201526064016105f7565b600160a060020a0382166000818152600360209081526040808320805460010190558483526002909152808220805473ffffffffffffffffffffffffffffffffffffffff19168417905551839291907fddf252ad1be2c89b69c2b068fc378daa952ba7f163c4a11628f55a4df523b3ef908290a45050565b6001811115610f5f57600160a060020a03841615611ddc57600160a060020a03841660009081526003602052604081208054839290611dd69084906127ea565b90915550505b600160a060020a03831615610f5f57600160a060020a03831660009081526003602052604081208054839290611e139084906127fd565b909155505050505050565b60006001611e2b84610cdd565b611e3591906127ea565b600083815260076020526040902054909150808214611e8857600160a060020a03841660009081526006602090815260408083208584528252808320548484528184208190558352600790915290208190555b506000918252600760209081526040808420849055600160a060020a039094168352600681528383209183525290812055565b600854600090611ecd906001906127ea565b60008381526009602052604081205460088054939450909284908110611ef557611ef5612524565b906000526020600020015490508060088381548110611f1657611f16612524565b6000918252602080832090910192909255828152600990915260408082208490558582528120556008805480611f4e57611f4e612810565b6001900381819060005260206000200160009055905550505050565b6000611f7583610cdd565b600160a060020a039093166000908152600660209081526040808320868452825280832085905593825260079052919091209190915550565b600160e060020a031981168114610f2757600080fd5b600060208284031215611fd657600080fd5b8135610fd281611fae565b60005b83811015611ffc578181015183820152602001611fe4565b50506000910152565b6000815180845261201d816020860160208601611fe1565b601f01601f19169290920160200192915050565b602081526000610fd26020830184612005565b60006020828403121561205657600080fd5b5035919050565b8035600160a060020a038116811461188657600080fd5b6000806040838503121561208757600080fd5b6120908361205d565b946020939093013593505050565b6000806000606084860312156120b357600080fd5b6120bc8461205d565b92506120ca6020850161205d565b9150604084013590509250925092565b6020815260008251604060208401526120f66060840182612005565b90506020840151601f198483030160408501526121138282612005565b95945050505050565b6020808252825182820181905260009190848201906040850190845b8181101561215457835183529284019291840191600101612138565b50909695505050505050565b6000806040838503121561217357600080fd5b50508035926020909101359150565b60006020828403121561219457600080fd5b610fd28261205d565b600080604083850312156121b057600080fd5b6121b98361205d565b9150602083013580151581146121ce57600080fd5b809150509250929050565b60e060020a634e487b7102600052604160045260246000fd5b600067ffffffffffffffff8084111561220d5761220d6121d9565b604051601f8501601f19908116603f01168101908282118183101715612235576122356121d9565b8160405280935085815286868601111561224e57600080fd5b858560208301376000602087830101525050509392505050565b6000806000806080858703121561227e57600080fd5b6122878561205d565b93506122956020860161205d565b925060408501359150606085013567ffffffffffffffff8111156122b857600080fd5b8501601f810187136122c957600080fd5b6122d8878235602084016121f2565b91505092959194509250565b600082601f8301126122f557600080fd5b610fd2838335602085016121f2565b60006020828403121561231657600080fd5b813567ffffffffffffffff8082111561232e57600080fd5b908301906040828603121561234257600080fd5b60405160408101818110838211171561235d5761235d6121d9565b60405282358281111561236f57600080fd5b61237b878286016122e4565b82525060208301358281111561239057600080fd5b61239c878286016122e4565b60208301525095945050505050565b602080825282518282018190526000919060409081850190868401855b828110156123ed578151805185528601518685015292840192908501906001016123c8565b5091979650505050505050565b6000806040838503121561240d57600080fd5b6124168361205d565b91506124246020840161205d565b90509250929050565b60028104600182168061244157607f821691505b6020821081036124645760e060020a634e487b7102600052602260045260246000fd5b50919050565b6020808252602d908201527f4552433732313a2063616c6c6572206973206e6f7420746f6b656e206f776e6560408201527f72206f7220617070726f76656400000000000000000000000000000000000000606082015260800190565b6020808252602a908201527f696c206d6f7374726f2061707061727469656e6520616420756e20616c74726f60408201527f2067696f6361746f726500000000000000000000000000000000000000000000606082015260800190565b60e060020a634e487b7102600052603260045260246000fd5b60e060020a634e487b7102600052601160045260246000fd5b6000600182016125685761256861253d565b5060010190565b60008261258f5760e060020a634e487b7102600052601260045260246000fd5b500690565b600083516125a6818460208801611fe1565b8351908301906125ba818360208801611fe1565b01949350505050565b601f82111561069b576000818152602081206020601f860104810160208610156125ea5750805b6020601f860104820191505b81811015612609578281556001016125f6565b505050505050565b815167ffffffffffffffff81111561262b5761262b6121d9565b61263f81612639845461242d565b846125c3565b602080601f831160018114612678576000841561265c5750858301515b60028086026008870290910a6000190419821617865550612609565b600085815260208120601f198616915b828110156126a757888601518255948401946001909101908401612688565b50858210156126c757878501516008601f88160260020a60001904191681555b5050505050600202600101905550565b60208082526025908201527f4552433732313a207472616e736665722066726f6d20696e636f72726563742060408201527f6f776e6572000000000000000000000000000000000000000000000000000000606082015260800190565b60208082526032908201527f4552433732313a207472616e7366657220746f206e6f6e20455243373231526560408201527f63656976657220696d706c656d656e7465720000000000000000000000000000606082015260800190565b6000600160a060020a038087168352808616602084015250836040830152608060608301526127c36080830184612005565b9695505050505050565b6000602082840312156127df57600080fd5b8151610fd281611fae565b818103818111156104a5576104a561253d565b808201808211156104a5576104a561253d565b60e060020a634e487b7102600052603160045260246000fdfea26469706673582212202fdf0c4c7f5c913192959f0fa0e41c119c81c56593fc389573c3e117cdec423a64736f6c63430008110033",
  "immutableReferences": {},
  "source": "//SPDX-License-Identifier: MIT\r\npragma solidity ^0.8.17;\r\n\r\nimport \"@openzeppelin/contracts/utils/Counters.sol\";\r\nimport \"@openzeppelin/contracts/access/Ownable.sol\";\r\nimport \"@openzeppelin/contracts/utils/math/SafeMath.sol\";\r\nimport \"@openzeppelin/contracts/token/ERC721/extensions/ERC721Enumerable.sol\";\r\n\r\ncontract MonsterCollection is ERC721Enumerable, Ownable {\r\n    event PropostaScambio(uint256 id1, uint256 id2);\r\n    event ScambioAccettato(uint256 id1, uint256 id2);\r\n    event Encounter(uint value);\r\n    using SafeMath for uint256;\r\n    using Counters for Counters.Counter;\r\n\r\n    Counters.Counter private _tokenIds;\r\n\r\n    struct Monster\r\n    {\r\n        string name;\r\n        string image;\r\n    }\r\n\r\n     struct Trade\r\n    {\r\n        uint256 monsterProposed;\r\n        uint256 monsterRequired;\r\n    }\r\n\r\n    mapping(uint256 => Monster) idToMonster;\r\n    mapping(uint256 => mapping(address => bool)) monsterEncounters;\r\n    mapping(uint256 => mapping(uint256 => bool)) trades;\r\n    Trade[] tradesArray;\r\n\r\n    constructor() ERC721(\"LGSNFT\", \"LGS\") {\r\n\r\n    }\r\n\r\n\r\n    function getTrades() public view returns (Trade[] memory) {\r\n       return tradesArray;\r\n    }\r\n\r\n\r\n    function proposeTrade(uint256 monsterProposed, uint256 monsterRequired) public {\r\n        _requireMinted(monsterRequired);\r\n        require(ownerOf(monsterProposed) == msg.sender,\"il mostro appartiene ad un altro giocatore\");\r\n        if(trades[monsterProposed][monsterRequired]==false){\r\n        trades[monsterProposed][monsterRequired] = true;\r\n        tradesArray.push(Trade(monsterProposed, monsterRequired));\r\n        }\r\n        emit PropostaScambio(monsterProposed, monsterRequired);\r\n    }\r\n\r\n    function acceptTrade(uint256 monsterProposed, uint256 monsterRequired) public {\r\n        _requireMinted(monsterProposed);\r\n        require(ownerOf(monsterRequired) == msg.sender,\"il mostro appartiene ad un altro giocatore\");\r\n        require(trades[monsterProposed][monsterRequired]==true, \"scambio non proposto\");\r\n        address proprietarioMonsterProposed = ownerOf(monsterProposed);\r\n        trades[monsterProposed][monsterRequired] = false;\r\n        _safeTransfer(proprietarioMonsterProposed,msg.sender,monsterProposed,\"\");\r\n        _safeTransfer(msg.sender, proprietarioMonsterProposed, monsterRequired,\"\");\r\n        uint256 j = tradesArray.length;\r\n        for(uint256 i = 0; i<j; i++){\r\n            if(tradesArray[i].monsterProposed==monsterProposed && tradesArray[i].monsterRequired==monsterRequired)\r\n               delete tradesArray[i];\r\n        }\r\n        emit ScambioAccettato(monsterProposed,monsterRequired);\r\n    }\r\n\r\n    function mintNFTs(Monster memory monster) public onlyOwner {\r\n\r\n        uint newTokenId = _mintSingleNFT();\r\n        idToMonster[newTokenId] = monster;\r\n\r\n    }\r\n\r\n    function _mintSingleNFT() private returns (uint){\r\n        uint newTokenID = _tokenIds.current();\r\n        _mint(address(this), newTokenID);\r\n        _tokenIds.increment();\r\n        return newTokenID;\r\n    }\r\n\r\n    function EncounterMonster() public returns(uint)\r\n    {\r\n    \r\n        require(NumberOfFreeMonsters() > 0, \"Nessun mostro disponibile\");\r\n        uint randomToken = tokenOfOwnerByIndex(address(this),block.number % NumberOfFreeMonsters());\r\n        monsterEncounters[randomToken][msg.sender] = true;\r\n        emit Encounter(randomToken);\r\n        return randomToken;\r\n    }\r\n\r\n    function ObtainMonster(uint idToken) public \r\n    {\r\n        _requireMinted(idToken);\r\n        require(monsterEncounters[idToken][msg.sender],\"non hai incontrato il mostro\");\r\n        require(ownerOf(idToken) == address(this),\"il mostro appartiene ad un altro giocatore\");\r\n        _safeTransfer(address(this),msg.sender,idToken,\"\");\r\n        \r\n\r\n    }\r\n\r\n    function freeMonsters() public view returns(uint[] memory)\r\n    {\r\n        return tokensOfOwner(address(this));\r\n    }\r\n\r\n    function NumberOfFreeMonsters() public view returns(uint)\r\n    {\r\n        return balanceOf(address(this));\r\n    }\r\n\r\n    function GetMyTokens() public view returns(uint256[] memory)\r\n    {\r\n        return tokensOfOwner(msg.sender);\r\n    }\r\n\r\n\r\n\r\n    function getMonsterByToken(uint idToken) public view returns (Monster memory)\r\n    {\r\n        _requireMinted(idToken);\r\n        return idToMonster[idToken];\r\n    }\r\n    \r\n    function tokensOfOwner(address _owner) public view returns (uint256[] memory) {\r\n        uint tokenCount = balanceOf(_owner);\r\n        uint[] memory tokensId = new uint256[](tokenCount);\r\n\r\n        for (uint i = 0; i < tokenCount; i++) {\r\n            tokensId[i] = tokenOfOwnerByIndex(_owner, i);\r\n        }\r\n        return tokensId;\r\n    }\r\n\r\n    \r\n  \r\n\r\n}",
  "sourcePath": "C:\\Users\\aurel\\Desktop\\progetto tesi\\ProgettoSicurezza\\truffleProject\\contracts\\MonsterCollection.sol",
  "compiler": {
    "name": "solc",
    "version": "0.8.17+commit.8df45f5f.Emscripten.clang"
  },
  "schemaVersion": "3.4.11",
  "updatedAt": "2023-02-22T16:53:36.520Z",
  "networkType": "ethereum",
  "devdoc": {
    "kind": "dev",
    "methods": {
      "approve(address,uint256)": {
        "details": "See {IERC721-approve}."
      },
      "balanceOf(address)": {
        "details": "See {IERC721-balanceOf}."
      },
      "getApproved(uint256)": {
        "details": "See {IERC721-getApproved}."
      },
      "isApprovedForAll(address,address)": {
        "details": "See {IERC721-isApprovedForAll}."
      },
      "name()": {
        "details": "See {IERC721Metadata-name}."
      },
      "owner()": {
        "details": "Returns the address of the current owner."
      },
      "ownerOf(uint256)": {
        "details": "See {IERC721-ownerOf}."
      },
      "renounceOwnership()": {
        "details": "Leaves the contract without owner. It will not be possible to call `onlyOwner` functions anymore. Can only be called by the current owner. NOTE: Renouncing ownership will leave the contract without an owner, thereby removing any functionality that is only available to the owner."
      },
      "safeTransferFrom(address,address,uint256)": {
        "details": "See {IERC721-safeTransferFrom}."
      },
      "safeTransferFrom(address,address,uint256,bytes)": {
        "details": "See {IERC721-safeTransferFrom}."
      },
      "setApprovalForAll(address,bool)": {
        "details": "See {IERC721-setApprovalForAll}."
      },
      "supportsInterface(bytes4)": {
        "details": "See {IERC165-supportsInterface}."
      },
      "symbol()": {
        "details": "See {IERC721Metadata-symbol}."
      },
      "tokenByIndex(uint256)": {
        "details": "See {IERC721Enumerable-tokenByIndex}."
      },
      "tokenOfOwnerByIndex(address,uint256)": {
        "details": "See {IERC721Enumerable-tokenOfOwnerByIndex}."
      },
      "tokenURI(uint256)": {
        "details": "See {IERC721Metadata-tokenURI}."
      },
      "totalSupply()": {
        "details": "See {IERC721Enumerable-totalSupply}."
      },
      "transferFrom(address,address,uint256)": {
        "details": "See {IERC721-transferFrom}."
      },
      "transferOwnership(address)": {
        "details": "Transfers ownership of the contract to a new account (`newOwner`). Can only be called by the current owner."
      }
    },
    "version": 1
  },
  "userdoc": {
    "kind": "user",
    "methods": {},
    "version": 1
  }
}